{
  "contractName": "Stores",
  "abi": [
    {
      "anonymous": false,
      "inputs": [
        {
          "indexed": true,
          "internalType": "address",
          "name": "admin",
          "type": "address"
        }
      ],
      "name": "AdminAdded",
      "type": "event"
    },
    {
      "anonymous": false,
      "inputs": [
        {
          "indexed": true,
          "internalType": "address",
          "name": "admin",
          "type": "address"
        }
      ],
      "name": "AdminRemoved",
      "type": "event"
    },
    {
      "anonymous": false,
      "inputs": [
        {
          "indexed": false,
          "internalType": "uint256",
          "name": "sku",
          "type": "uint256"
        },
        {
          "indexed": false,
          "internalType": "uint256",
          "name": "storeId",
          "type": "uint256"
        }
      ],
      "name": "ItemAdded",
      "type": "event"
    },
    {
      "anonymous": false,
      "inputs": [
        {
          "indexed": false,
          "internalType": "uint256",
          "name": "sku",
          "type": "uint256"
        },
        {
          "indexed": false,
          "internalType": "uint256",
          "name": "storeId",
          "type": "uint256"
        }
      ],
      "name": "ItemPurchased",
      "type": "event"
    },
    {
      "anonymous": false,
      "inputs": [
        {
          "indexed": false,
          "internalType": "uint256",
          "name": "sku",
          "type": "uint256"
        },
        {
          "indexed": false,
          "internalType": "uint256",
          "name": "storeId",
          "type": "uint256"
        }
      ],
      "name": "ItemRemoved",
      "type": "event"
    },
    {
      "anonymous": false,
      "inputs": [
        {
          "indexed": true,
          "internalType": "address",
          "name": "previousOwner",
          "type": "address"
        },
        {
          "indexed": true,
          "internalType": "address",
          "name": "newOwner",
          "type": "address"
        }
      ],
      "name": "OwnershipTransferred",
      "type": "event"
    },
    {
      "anonymous": false,
      "inputs": [
        {
          "indexed": false,
          "internalType": "address",
          "name": "account",
          "type": "address"
        }
      ],
      "name": "Paused",
      "type": "event"
    },
    {
      "anonymous": false,
      "inputs": [
        {
          "indexed": true,
          "internalType": "address",
          "name": "account",
          "type": "address"
        }
      ],
      "name": "PauserAdded",
      "type": "event"
    },
    {
      "anonymous": false,
      "inputs": [
        {
          "indexed": true,
          "internalType": "address",
          "name": "account",
          "type": "address"
        }
      ],
      "name": "PauserRemoved",
      "type": "event"
    },
    {
      "anonymous": false,
      "inputs": [
        {
          "indexed": false,
          "internalType": "address",
          "name": "storeOwner",
          "type": "address"
        },
        {
          "indexed": false,
          "internalType": "uint256",
          "name": "withdrawAmount",
          "type": "uint256"
        },
        {
          "indexed": false,
          "internalType": "uint256",
          "name": "newBalance",
          "type": "uint256"
        }
      ],
      "name": "StoreBalanceWithdrawn",
      "type": "event"
    },
    {
      "anonymous": false,
      "inputs": [
        {
          "indexed": false,
          "internalType": "uint256",
          "name": "storeId",
          "type": "uint256"
        }
      ],
      "name": "StoreClosed",
      "type": "event"
    },
    {
      "anonymous": false,
      "inputs": [
        {
          "indexed": false,
          "internalType": "uint256",
          "name": "storeId",
          "type": "uint256"
        }
      ],
      "name": "StoreOpened",
      "type": "event"
    },
    {
      "anonymous": false,
      "inputs": [
        {
          "indexed": true,
          "internalType": "address",
          "name": "storeOwner",
          "type": "address"
        }
      ],
      "name": "StoreOwnerAdded",
      "type": "event"
    },
    {
      "anonymous": false,
      "inputs": [
        {
          "indexed": true,
          "internalType": "address",
          "name": "storeOwner",
          "type": "address"
        }
      ],
      "name": "StoreOwnerRemoved",
      "type": "event"
    },
    {
      "anonymous": false,
      "inputs": [
        {
          "indexed": false,
          "internalType": "address",
          "name": "account",
          "type": "address"
        }
      ],
      "name": "Unpaused",
      "type": "event"
    },
    {
      "payable": true,
      "stateMutability": "payable",
      "type": "fallback"
    },
    {
      "constant": false,
      "inputs": [
        {
          "internalType": "address",
          "name": "account",
          "type": "address"
        }
      ],
      "name": "addAdmin",
      "outputs": [
        {
          "internalType": "bool",
          "name": "",
          "type": "bool"
        }
      ],
      "payable": false,
      "stateMutability": "nonpayable",
      "type": "function"
    },
    {
      "constant": false,
      "inputs": [
        {
          "internalType": "address",
          "name": "account",
          "type": "address"
        }
      ],
      "name": "addPauser",
      "outputs": [],
      "payable": false,
      "stateMutability": "nonpayable",
      "type": "function"
    },
    {
      "constant": false,
      "inputs": [
        {
          "internalType": "address",
          "name": "storeOwner",
          "type": "address"
        }
      ],
      "name": "addStoreOwner",
      "outputs": [
        {
          "internalType": "bool",
          "name": "",
          "type": "bool"
        }
      ],
      "payable": false,
      "stateMutability": "nonpayable",
      "type": "function"
    },
    {
      "constant": true,
      "inputs": [
        {
          "internalType": "address",
          "name": "account",
          "type": "address"
        }
      ],
      "name": "isAdmin",
      "outputs": [
        {
          "internalType": "bool",
          "name": "",
          "type": "bool"
        }
      ],
      "payable": false,
      "stateMutability": "view",
      "type": "function"
    },
    {
      "constant": true,
      "inputs": [],
      "name": "isOwner",
      "outputs": [
        {
          "internalType": "bool",
          "name": "",
          "type": "bool"
        }
      ],
      "payable": false,
      "stateMutability": "view",
      "type": "function"
    },
    {
      "constant": true,
      "inputs": [
        {
          "internalType": "address",
          "name": "account",
          "type": "address"
        }
      ],
      "name": "isPauser",
      "outputs": [
        {
          "internalType": "bool",
          "name": "",
          "type": "bool"
        }
      ],
      "payable": false,
      "stateMutability": "view",
      "type": "function"
    },
    {
      "constant": true,
      "inputs": [
        {
          "internalType": "address",
          "name": "account",
          "type": "address"
        }
      ],
      "name": "isStoreOwner",
      "outputs": [
        {
          "internalType": "bool",
          "name": "",
          "type": "bool"
        }
      ],
      "payable": false,
      "stateMutability": "view",
      "type": "function"
    },
    {
      "constant": true,
      "inputs": [],
      "name": "owner",
      "outputs": [
        {
          "internalType": "address",
          "name": "",
          "type": "address"
        }
      ],
      "payable": false,
      "stateMutability": "view",
      "type": "function"
    },
    {
      "constant": false,
      "inputs": [],
      "name": "pause",
      "outputs": [],
      "payable": false,
      "stateMutability": "nonpayable",
      "type": "function"
    },
    {
      "constant": true,
      "inputs": [],
      "name": "paused",
      "outputs": [
        {
          "internalType": "bool",
          "name": "",
          "type": "bool"
        }
      ],
      "payable": false,
      "stateMutability": "view",
      "type": "function"
    },
    {
      "constant": false,
      "inputs": [
        {
          "internalType": "address",
          "name": "account",
          "type": "address"
        }
      ],
      "name": "removeAdmin",
      "outputs": [
        {
          "internalType": "bool",
          "name": "",
          "type": "bool"
        }
      ],
      "payable": false,
      "stateMutability": "nonpayable",
      "type": "function"
    },
    {
      "constant": false,
      "inputs": [
        {
          "internalType": "address",
          "name": "storeOwner",
          "type": "address"
        }
      ],
      "name": "removeStoreOwner",
      "outputs": [
        {
          "internalType": "bool",
          "name": "",
          "type": "bool"
        }
      ],
      "payable": false,
      "stateMutability": "nonpayable",
      "type": "function"
    },
    {
      "constant": false,
      "inputs": [],
      "name": "renounceOwnership",
      "outputs": [],
      "payable": false,
      "stateMutability": "nonpayable",
      "type": "function"
    },
    {
      "constant": false,
      "inputs": [],
      "name": "renouncePauser",
      "outputs": [],
      "payable": false,
      "stateMutability": "nonpayable",
      "type": "function"
    },
    {
      "constant": false,
      "inputs": [
        {
          "internalType": "address",
          "name": "newOwner",
          "type": "address"
        }
      ],
      "name": "transferOwnership",
      "outputs": [],
      "payable": false,
      "stateMutability": "nonpayable",
      "type": "function"
    },
    {
      "constant": false,
      "inputs": [],
      "name": "unpause",
      "outputs": [],
      "payable": false,
      "stateMutability": "nonpayable",
      "type": "function"
    },
    {
      "constant": true,
      "inputs": [],
      "name": "getBalance",
      "outputs": [
        {
          "internalType": "uint256",
          "name": "",
          "type": "uint256"
        }
      ],
      "payable": false,
      "stateMutability": "view",
      "type": "function"
    },
    {
      "constant": true,
      "inputs": [
        {
          "internalType": "uint256",
          "name": "storeId",
          "type": "uint256"
        }
      ],
      "name": "isStoreOpen",
      "outputs": [
        {
          "internalType": "bool",
          "name": "",
          "type": "bool"
        }
      ],
      "payable": false,
      "stateMutability": "view",
      "type": "function"
    },
    {
      "constant": true,
      "inputs": [
        {
          "internalType": "uint256",
          "name": "storeId",
          "type": "uint256"
        },
        {
          "internalType": "uint256",
          "name": "sku",
          "type": "uint256"
        }
      ],
      "name": "fetchItem",
      "outputs": [
        {
          "internalType": "string",
          "name": "name",
          "type": "string"
        },
        {
          "internalType": "uint256",
          "name": "price",
          "type": "uint256"
        },
        {
          "internalType": "uint256",
          "name": "quantity",
          "type": "uint256"
        },
        {
          "internalType": "bool",
          "name": "available",
          "type": "bool"
        }
      ],
      "payable": false,
      "stateMutability": "view",
      "type": "function"
    },
    {
      "constant": false,
      "inputs": [
        {
          "internalType": "string",
          "name": "_name",
          "type": "string"
        }
      ],
      "name": "openStore",
      "outputs": [
        {
          "internalType": "bool",
          "name": "",
          "type": "bool"
        }
      ],
      "payable": false,
      "stateMutability": "nonpayable",
      "type": "function"
    },
    {
      "constant": false,
      "inputs": [
        {
          "internalType": "uint256",
          "name": "storeId",
          "type": "uint256"
        }
      ],
      "name": "closeStore",
      "outputs": [
        {
          "internalType": "bool",
          "name": "",
          "type": "bool"
        }
      ],
      "payable": false,
      "stateMutability": "nonpayable",
      "type": "function"
    },
    {
      "constant": false,
      "inputs": [
        {
          "internalType": "string",
          "name": "_name",
          "type": "string"
        },
        {
          "internalType": "uint256",
          "name": "_price",
          "type": "uint256"
        },
        {
          "internalType": "uint256",
          "name": "_quantity",
          "type": "uint256"
        },
        {
          "internalType": "uint256",
          "name": "_storeId",
          "type": "uint256"
        }
      ],
      "name": "addItem",
      "outputs": [
        {
          "internalType": "bool",
          "name": "",
          "type": "bool"
        }
      ],
      "payable": false,
      "stateMutability": "nonpayable",
      "type": "function"
    },
    {
      "constant": false,
      "inputs": [
        {
          "internalType": "uint256",
          "name": "storeId",
          "type": "uint256"
        },
        {
          "internalType": "uint256",
          "name": "sku",
          "type": "uint256"
        }
      ],
      "name": "removeItem",
      "outputs": [
        {
          "internalType": "bool",
          "name": "",
          "type": "bool"
        }
      ],
      "payable": false,
      "stateMutability": "nonpayable",
      "type": "function"
    },
    {
      "constant": false,
      "inputs": [
        {
          "internalType": "uint256",
          "name": "storeId",
          "type": "uint256"
        },
        {
          "internalType": "uint256",
          "name": "sku",
          "type": "uint256"
        },
        {
          "internalType": "uint256",
          "name": "quantity",
          "type": "uint256"
        }
      ],
      "name": "buyItem",
      "outputs": [
        {
          "internalType": "bool",
          "name": "",
          "type": "bool"
        }
      ],
      "payable": true,
      "stateMutability": "payable",
      "type": "function"
    },
    {
      "constant": false,
      "inputs": [
        {
          "internalType": "uint256",
          "name": "withdrawAmount",
          "type": "uint256"
        }
      ],
      "name": "withdrawStoreBalance",
      "outputs": [
        {
          "internalType": "uint256",
          "name": "",
          "type": "uint256"
        }
      ],
      "payable": false,
      "stateMutability": "nonpayable",
      "type": "function"
    }
  ],
  "bytecode": "0x6080604052620000146200016860201b60201c565b6000806101000a81548173ffffffffffffffffffffffffffffffffffffffff021916908373ffffffffffffffffffffffffffffffffffffffff1602179055506000809054906101000a900473ffffffffffffffffffffffffffffffffffffffff1673ffffffffffffffffffffffffffffffffffffffff16600073ffffffffffffffffffffffffffffffffffffffff167f8be0079c531659141344cd1fd0a4f28419497f9722a3daafe3b4186f6b6457e060405160405180910390a3620000ef620000e36200016860201b60201c565b6200017060201b60201c565b6000600260006101000a81548160ff0219169083151502179055506001600360003373ffffffffffffffffffffffffffffffffffffffff1673ffffffffffffffffffffffffffffffffffffffff16815260200190815260200160002060006101000a81548160ff02191690831515021790555062000395565b600033905090565b6200018b816001620001d160201b6200362b1790919060201c565b8073ffffffffffffffffffffffffffffffffffffffff167f6719d08c1888103bea251a4ed56406bd0c3e69723c8a1686e017e7bbe159b6f860405160405180910390a250565b620001e38282620002b560201b60201c565b1562000257576040517f08c379a000000000000000000000000000000000000000000000000000000000815260040180806020018281038252601f8152602001807f526f6c65733a206163636f756e7420616c72656164792068617320726f6c650081525060200191505060405180910390fd5b60018260000160008373ffffffffffffffffffffffffffffffffffffffff1673ffffffffffffffffffffffffffffffffffffffff16815260200190815260200160002060006101000a81548160ff0219169083151502179055505050565b60008073ffffffffffffffffffffffffffffffffffffffff168273ffffffffffffffffffffffffffffffffffffffff1614156200033e576040517f08c379a000000000000000000000000000000000000000000000000000000000815260040180806020018281038252602281526020018062003c706022913960400191505060405180910390fd5b8260000160008373ffffffffffffffffffffffffffffffffffffffff1673ffffffffffffffffffffffffffffffffffffffff16815260200190815260200160002060009054906101000a900460ff16905092915050565b6138cb80620003a56000396000f3fe6080604052600436106101665760003560e01c806370480275116100d15780638f32d59b1161008a578063d5e57da611610064578063d5e57da614610810578063dc0dd677146108e7578063dc160d51146109e5578063f2fde38b14610a3857610166565b80638f32d59b146106985780639adeb5f1146106c7578063afd04bb31461073057610166565b806370480275146104fc578063715018a61461056557806382dc1ec41461057c5780638456cb59146105cd578063870fc347146105e45780638da5cb5b1461064157610166565b806346fbf68e1161012357806346fbf68e146103285780635c975abb146103915780635effd33c146103c05780636174fdd1146104295780636ef8d66d146104925780636ff5712a146104a957610166565b806312065fe01461016b57806315aaeb22146101965780631785f53c146101e55780631f6a83181461024e57806324d7806c146102a85780633f4ba83a14610311575b600080fd5b34801561017757600080fd5b50610180610a89565b6040518082815260200191505060405180910390f35b3480156101a257600080fd5b506101cf600480360360208110156101b957600080fd5b8101908080359060200190929190505050610bce565b6040518082815260200191505060405180910390f35b3480156101f157600080fd5b506102346004803603602081101561020857600080fd5b81019080803573ffffffffffffffffffffffffffffffffffffffff169060200190929190505050611048565b604051808215151515815260200191505060405180910390f35b61028e6004803603606081101561026457600080fd5b810190808035906020019092919080359060200190929190803590602001909291905050506111ec565b604051808215151515815260200191505060405180910390f35b3480156102b457600080fd5b506102f7600480360360208110156102cb57600080fd5b81019080803573ffffffffffffffffffffffffffffffffffffffff16906020019092919050505061186f565b604051808215151515815260200191505060405180910390f35b34801561031d57600080fd5b506103266118c5565b005b34801561033457600080fd5b506103776004803603602081101561034b57600080fd5b81019080803573ffffffffffffffffffffffffffffffffffffffff169060200190929190505050611a33565b604051808215151515815260200191505060405180910390f35b34801561039d57600080fd5b506103a6611a50565b604051808215151515815260200191505060405180910390f35b3480156103cc57600080fd5b5061040f600480360360208110156103e357600080fd5b81019080803573ffffffffffffffffffffffffffffffffffffffff169060200190929190505050611a67565b604051808215151515815260200191505060405180910390f35b34801561043557600080fd5b506104786004803603602081101561044c57600080fd5b81019080803573ffffffffffffffffffffffffffffffffffffffff169060200190929190505050611b40565b604051808215151515815260200191505060405180910390f35b34801561049e57600080fd5b506104a7611ce4565b005b3480156104b557600080fd5b506104e2600480360360208110156104cc57600080fd5b8101908080359060200190929190505050611cf6565b604051808215151515815260200191505060405180910390f35b34801561050857600080fd5b5061054b6004803603602081101561051f57600080fd5b81019080803573ffffffffffffffffffffffffffffffffffffffff169060200190929190505050611da6565b604051808215151515815260200191505060405180910390f35b34801561057157600080fd5b5061057a611f4a565b005b34801561058857600080fd5b506105cb6004803603602081101561059f57600080fd5b81019080803573ffffffffffffffffffffffffffffffffffffffff169060200190929190505050612083565b005b3480156105d957600080fd5b506105e26120f4565b005b3480156105f057600080fd5b506106276004803603604081101561060757600080fd5b810190808035906020019092919080359060200190929190505050612263565b604051808215151515815260200191505060405180910390f35b34801561064d57600080fd5b50610656612446565b604051808273ffffffffffffffffffffffffffffffffffffffff1673ffffffffffffffffffffffffffffffffffffffff16815260200191505060405180910390f35b3480156106a457600080fd5b506106ad61246f565b604051808215151515815260200191505060405180910390f35b3480156106d357600080fd5b50610716600480360360208110156106ea57600080fd5b81019080803573ffffffffffffffffffffffffffffffffffffffff1690602001909291905050506124cd565b604051808215151515815260200191505060405180910390f35b34801561073c57600080fd5b506107f66004803603602081101561075357600080fd5b810190808035906020019064010000000081111561077057600080fd5b82018360208201111561078257600080fd5b803590602001918460018302840111640100000000831117156107a457600080fd5b91908080601f016020809104026020016040519081016040528093929190818152602001838380828437600081840152601f19601f820116905080830192505050505050509192919290505050612671565b604051808215151515815260200191505060405180910390f35b34801561081c57600080fd5b506108536004803603604081101561083357600080fd5b8101908080359060200190929190803590602001909291905050506128f6565b604051808060200185815260200184815260200183151515158152602001828103825286818151815260200191508051906020019080838360005b838110156108a957808201518184015260208101905061088e565b50505050905090810190601f1680156108d65780820380516001836020036101000a031916815260200191505b509550505050505060405180910390f35b3480156108f357600080fd5b506109cb6004803603608081101561090a57600080fd5b810190808035906020019064010000000081111561092757600080fd5b82018360208201111561093957600080fd5b8035906020019184600183028401116401000000008311171561095b57600080fd5b91908080601f016020809104026020016040519081016040528093929190818152602001838380828437600081840152601f19601f820116905080830192505050505050509192919290803590602001909291908035906020019092919080359060200190929190505050612ae2565b604051808215151515815260200191505060405180910390f35b3480156109f157600080fd5b50610a1e60048036036020811015610a0857600080fd5b8101908080359060200190929190505050612cfb565b604051808215151515815260200191505060405180910390f35b348015610a4457600080fd5b50610a8760048036036020811015610a5b57600080fd5b81019080803573ffffffffffffffffffffffffffffffffffffffff169060200190929190505050612ff2565b005b6000610a9433611a67565b610b06576040517f08c379a000000000000000000000000000000000000000000000000000000000815260040180806020018281038252601b8152602001807f43616c6c6572206973206e6f7420612053746f7265204f776e6572000000000081525060200191505060405180910390fd5b600260009054906101000a900460ff1615610b89576040517f08c379a00000000000000000000000000000000000000000000000000000000081526004018080602001828103825260108152602001807f5061757361626c653a207061757365640000000000000000000000000000000081525060200191505060405180910390fd5b600960003373ffffffffffffffffffffffffffffffffffffffff1673ffffffffffffffffffffffffffffffffffffffff16815260200190815260200160002054905090565b6000610bd933611a67565b610c4b576040517f08c379a000000000000000000000000000000000000000000000000000000000815260040180806020018281038252601b8152602001807f43616c6c6572206973206e6f7420612053746f7265204f776e6572000000000081525060200191505060405180910390fd5b600260009054906101000a900460ff1615610cce576040517f08c379a00000000000000000000000000000000000000000000000000000000081526004018080602001828103825260108152602001807f5061757361626c653a207061757365640000000000000000000000000000000081525060200191505060405180910390fd5b6000821415610d45576040517f08c379a000000000000000000000000000000000000000000000000000000000815260040180806020018281038252601a8152602001807f4572726f723a203020616d6f756e74207370656369666965642100000000000081525060200191505060405180910390fd5b81600960003373ffffffffffffffffffffffffffffffffffffffff1673ffffffffffffffffffffffffffffffffffffffff168152602001908152602001600020541015610ddd576040517f08c379a00000000000000000000000000000000000000000000000000000000081526004018080602001828103825260318152602001806138236031913960400191505060405180910390fd5b610e2f82600960003373ffffffffffffffffffffffffffffffffffffffff1673ffffffffffffffffffffffffffffffffffffffff1681526020019081526020016000205461307890919063ffffffff16565b600960003373ffffffffffffffffffffffffffffffffffffffff1673ffffffffffffffffffffffffffffffffffffffff1681526020019081526020016000208190555060003373ffffffffffffffffffffffffffffffffffffffff168360405180600001905060006040518083038185875af1925050503d8060008114610ed2576040519150601f19603f3d011682016040523d82523d6000602084013e610ed7565b606091505b5050905080610f4e576040517f08c379a00000000000000000000000000000000000000000000000000000000081526004018080602001828103825260108152602001807f5472616e73666572206661696c65642e0000000000000000000000000000000081525060200191505060405180910390fd5b7fa636d868a12def6da8aac602d315b466e25f339016505f0ddb063a90378c17403384600960003373ffffffffffffffffffffffffffffffffffffffff1673ffffffffffffffffffffffffffffffffffffffff16815260200190815260200160002054604051808473ffffffffffffffffffffffffffffffffffffffff1673ffffffffffffffffffffffffffffffffffffffff168152602001838152602001828152602001935050505060405180910390a1600960003373ffffffffffffffffffffffffffffffffffffffff1673ffffffffffffffffffffffffffffffffffffffff16815260200190815260200160002054915050919050565b6000600260009054906101000a900460ff16156110cd576040517f08c379a00000000000000000000000000000000000000000000000000000000081526004018080602001828103825260108152602001807f5061757361626c653a207061757365640000000000000000000000000000000081525060200191505060405180910390fd5b6110d63361186f565b611148576040517f08c379a00000000000000000000000000000000000000000000000000000000081526004018080602001828103825260168152602001807f43616c6c6572206973206e6f7420616e2041646d696e0000000000000000000081525060200191505060405180910390fd5b6000600360008473ffffffffffffffffffffffffffffffffffffffff1673ffffffffffffffffffffffffffffffffffffffff16815260200190815260200160002060006101000a81548160ff0219169083151502179055508173ffffffffffffffffffffffffffffffffffffffff167fa3b62bc36326052d97ea62d63c3d60308ed4c3ea8ac079dd8499f1e9c4f80c0f60405160405180910390a260019050919050565b600083838360008111611267576040517f08c379a000000000000000000000000000000000000000000000000000000000815260040180806020018281038252601c8152602001807f4572726f723a2030207175616e7469747920737065636966696564210000000081525060200191505060405180910390fd5b80600860008581526020019081526020016000206000848152602001908152602001600020600301541015611304576040517f08c379a000000000000000000000000000000000000000000000000000000000815260040180806020018281038252601d8152602001807f4572726f723a207175616e74697479206e6f7420617661696c61626c6500000081525060200191505060405180910390fd5b61133e81600860008681526020019081526020016000206000858152602001908152602001600020600201546130c290919063ffffffff16565b3410156113b3576040517f08c379a00000000000000000000000000000000000000000000000000000000081526004018080602001828103825260128152602001807f496e73756666696369656e742066756e6473000000000000000000000000000081525060200191505060405180910390fd5b868686600260009054906101000a900460ff1615611439576040517f08c379a00000000000000000000000000000000000000000000000000000000081526004018080602001828103825260108152602001807f5061757361626c653a207061757365640000000000000000000000000000000081525060200191505060405180910390fd5b600860008b815260200190815260200160002060008a815260200190815260200160002060040160009054906101000a900460ff1661147757600080fd5b6114ff3460096000600760008f815260200190815260200160002060020160009054906101000a900473ffffffffffffffffffffffffffffffffffffffff1673ffffffffffffffffffffffffffffffffffffffff1673ffffffffffffffffffffffffffffffffffffffff1681526020019081526020016000205461314890919063ffffffff16565b60096000600760008e815260200190815260200160002060020160009054906101000a900473ffffffffffffffffffffffffffffffffffffffff1673ffffffffffffffffffffffffffffffffffffffff1673ffffffffffffffffffffffffffffffffffffffff168152602001908152602001600020819055506115b288600860008d815260200190815260200160002060008c81526020019081526020016000206003015461307890919063ffffffff16565b600860008c815260200190815260200160002060008b8152602001908152602001600020600301819055507f82979ce06c1fcf7a090707d8fc7123bfa6b69ba161402b0d6c52e052bd97d04b8a8a604051808381526020018281526020019250505060405180910390a1600196506000600860008581526020019081526020016000206000848152602001908152602001600020600201549050600061167361166484846130c290919063ffffffff16565b3461307890919063ffffffff16565b90506000811161168257600080fd5b61170a8160096000600760008a815260200190815260200160002060020160009054906101000a900473ffffffffffffffffffffffffffffffffffffffff1673ffffffffffffffffffffffffffffffffffffffff1673ffffffffffffffffffffffffffffffffffffffff1681526020019081526020016000205461307890919063ffffffff16565b600960006007600089815260200190815260200160002060020160009054906101000a900473ffffffffffffffffffffffffffffffffffffffff1673ffffffffffffffffffffffffffffffffffffffff1673ffffffffffffffffffffffffffffffffffffffff1681526020019081526020016000208190555060003373ffffffffffffffffffffffffffffffffffffffff168260405180600001905060006040518083038185875af1925050503d80600081146117e3576040519150601f19603f3d011682016040523d82523d6000602084013e6117e8565b606091505b505090508061185f576040517f08c379a000000000000000000000000000000000000000000000000000000000815260040180806020018281038252600f8152602001807f5472616e73666572204661696c6564000000000000000000000000000000000081525060200191505060405180910390fd5b5050505050505050509392505050565b6000600360008373ffffffffffffffffffffffffffffffffffffffff1673ffffffffffffffffffffffffffffffffffffffff16815260200190815260200160002060009054906101000a900460ff169050919050565b6118d56118d06131d0565b611a33565b61192a576040517f08c379a00000000000000000000000000000000000000000000000000000000081526004018080602001828103825260308152602001806137ac6030913960400191505060405180910390fd5b600260009054906101000a900460ff166119ac576040517f08c379a00000000000000000000000000000000000000000000000000000000081526004018080602001828103825260148152602001807f5061757361626c653a206e6f742070617573656400000000000000000000000081525060200191505060405180910390fd5b6000600260006101000a81548160ff0219169083151502179055507f5db9ee0a495bf2e6ff9c91a7834c1ba4fdd244a5e8aa4e537bd38aeae4b073aa6119f06131d0565b604051808273ffffffffffffffffffffffffffffffffffffffff1673ffffffffffffffffffffffffffffffffffffffff16815260200191505060405180910390a1565b6000611a498260016131d890919063ffffffff16565b9050919050565b6000600260009054906101000a900460ff16905090565b6000600260009054906101000a900460ff1615611aec576040517f08c379a00000000000000000000000000000000000000000000000000000000081526004018080602001828103825260108152602001807f5061757361626c653a207061757365640000000000000000000000000000000081525060200191505060405180910390fd5b600460008373ffffffffffffffffffffffffffffffffffffffff1673ffffffffffffffffffffffffffffffffffffffff16815260200190815260200160002060009054906101000a900460ff169050919050565b6000600260009054906101000a900460ff1615611bc5576040517f08c379a00000000000000000000000000000000000000000000000000000000081526004018080602001828103825260108152602001807f5061757361626c653a207061757365640000000000000000000000000000000081525060200191505060405180910390fd5b611bce3361186f565b611c40576040517f08c379a00000000000000000000000000000000000000000000000000000000081526004018080602001828103825260168152602001807f43616c6c6572206973206e6f7420616e2041646d696e0000000000000000000081525060200191505060405180910390fd5b6000600460008473ffffffffffffffffffffffffffffffffffffffff1673ffffffffffffffffffffffffffffffffffffffff16815260200190815260200160002060006101000a81548160ff0219169083151502179055508173ffffffffffffffffffffffffffffffffffffffff167fee8258b57c171df72836d554f2addcb97a3be3652a6f9f58a431063096c0b84060405160405180910390a260019050919050565b611cf4611cef6131d0565b6132b6565b565b6000600260009054906101000a900460ff1615611d7b576040517f08c379a00000000000000000000000000000000000000000000000000000000081526004018080602001828103825260108152602001807f5061757361626c653a207061757365640000000000000000000000000000000081525060200191505060405180910390fd5b6007600083815260200190815260200160002060020160149054906101000a900460ff169050919050565b6000600260009054906101000a900460ff1615611e2b576040517f08c379a00000000000000000000000000000000000000000000000000000000081526004018080602001828103825260108152602001807f5061757361626c653a207061757365640000000000000000000000000000000081525060200191505060405180910390fd5b611e343361186f565b611ea6576040517f08c379a00000000000000000000000000000000000000000000000000000000081526004018080602001828103825260168152602001807f43616c6c6572206973206e6f7420616e2041646d696e0000000000000000000081525060200191505060405180910390fd5b6001600360008473ffffffffffffffffffffffffffffffffffffffff1673ffffffffffffffffffffffffffffffffffffffff16815260200190815260200160002060006101000a81548160ff0219169083151502179055508173ffffffffffffffffffffffffffffffffffffffff167f44d6d25963f097ad14f29f06854a01f575648a1ef82f30e562ccd3889717e33960405160405180910390a260019050919050565b611f5261246f565b611fc4576040517f08c379a00000000000000000000000000000000000000000000000000000000081526004018080602001828103825260208152602001807f4f776e61626c653a2063616c6c6572206973206e6f7420746865206f776e657281525060200191505060405180910390fd5b600073ffffffffffffffffffffffffffffffffffffffff166000809054906101000a900473ffffffffffffffffffffffffffffffffffffffff1673ffffffffffffffffffffffffffffffffffffffff167f8be0079c531659141344cd1fd0a4f28419497f9722a3daafe3b4186f6b6457e060405160405180910390a360008060006101000a81548173ffffffffffffffffffffffffffffffffffffffff021916908373ffffffffffffffffffffffffffffffffffffffff160217905550565b61209361208e6131d0565b611a33565b6120e8576040517f08c379a00000000000000000000000000000000000000000000000000000000081526004018080602001828103825260308152602001806137ac6030913960400191505060405180910390fd5b6120f181613310565b50565b6121046120ff6131d0565b611a33565b612159576040517f08c379a00000000000000000000000000000000000000000000000000000000081526004018080602001828103825260308152602001806137ac6030913960400191505060405180910390fd5b600260009054906101000a900460ff16156121dc576040517f08c379a00000000000000000000000000000000000000000000000000000000081526004018080602001828103825260108152602001807f5061757361626c653a207061757365640000000000000000000000000000000081525060200191505060405180910390fd5b6001600260006101000a81548160ff0219169083151502179055507f62e78cea01bee320cd4e420270b5ea74000d11b0c9f74754ebdbfc544b05a2586122206131d0565b604051808273ffffffffffffffffffffffffffffffffffffffff1673ffffffffffffffffffffffffffffffffffffffff16815260200191505060405180910390a1565b600061226e33611a67565b6122e0576040517f08c379a000000000000000000000000000000000000000000000000000000000815260040180806020018281038252601b8152602001807f43616c6c6572206973206e6f7420612053746f7265204f776e6572000000000081525060200191505060405180910390fd5b600260009054906101000a900460ff1615612363576040517f08c379a00000000000000000000000000000000000000000000000000000000081526004018080602001828103825260108152602001807f5061757361626c653a207061757365640000000000000000000000000000000081525060200191505060405180910390fd5b600060086000858152602001908152602001600020600084815260200190815260200160002060020181905550600060086000858152602001908152602001600020600084815260200190815260200160002060030181905550600060086000858152602001908152602001600020600084815260200190815260200160002060040160006101000a81548160ff0219169083151502179055507ff6b7785072084000d80554abaf4d438ec9bce827d71b6ac74a0c6d24843770dc8383604051808381526020018281526020019250505060405180910390a16001905092915050565b60008060009054906101000a900473ffffffffffffffffffffffffffffffffffffffff16905090565b60008060009054906101000a900473ffffffffffffffffffffffffffffffffffffffff1673ffffffffffffffffffffffffffffffffffffffff166124b16131d0565b73ffffffffffffffffffffffffffffffffffffffff1614905090565b6000600260009054906101000a900460ff1615612552576040517f08c379a00000000000000000000000000000000000000000000000000000000081526004018080602001828103825260108152602001807f5061757361626c653a207061757365640000000000000000000000000000000081525060200191505060405180910390fd5b61255b3361186f565b6125cd576040517f08c379a00000000000000000000000000000000000000000000000000000000081526004018080602001828103825260168152602001807f43616c6c6572206973206e6f7420616e2041646d696e0000000000000000000081525060200191505060405180910390fd5b6001600460008473ffffffffffffffffffffffffffffffffffffffff1673ffffffffffffffffffffffffffffffffffffffff16815260200190815260200160002060006101000a81548160ff0219169083151502179055508173ffffffffffffffffffffffffffffffffffffffff167fe095b54135d91dfdb849d8f2a1232ed69da67f78cfd33a34a834084d8d037e9a60405160405180910390a260019050919050565b600061267c33611a67565b6126ee576040517f08c379a000000000000000000000000000000000000000000000000000000000815260040180806020018281038252601b8152602001807f43616c6c6572206973206e6f7420612053746f7265204f776e6572000000000081525060200191505060405180910390fd5b600260009054906101000a900460ff1615612771576040517f08c379a00000000000000000000000000000000000000000000000000000000081526004018080602001828103825260108152602001807f5061757361626c653a207061757365640000000000000000000000000000000081525060200191505060405180910390fd5b604051806080016040528060055481526020018381526020013373ffffffffffffffffffffffffffffffffffffffff168152602001600115158152506007600060055481526020019081526020016000206000820151816000015560208201518160010190805190602001906127e8929190613706565b5060408201518160020160006101000a81548173ffffffffffffffffffffffffffffffffffffffff021916908373ffffffffffffffffffffffffffffffffffffffff16021790555060608201518160020160146101000a81548160ff0219169083151502179055509050506000600960003373ffffffffffffffffffffffffffffffffffffffff1673ffffffffffffffffffffffffffffffffffffffff168152602001908152602001600020819055507ff07434ff6659002862f3ac6bfc8267b31c44f123d374dfe6015861a3dedfc0db6005546040518082815260200191505060405180910390a16128e7600160055461314890919063ffffffff16565b60058190555060019050919050565b60606000806000600260009054906101000a900460ff1615612980576040517f08c379a00000000000000000000000000000000000000000000000000000000081526004018080602001828103825260108152602001807f5061757361626c653a207061757365640000000000000000000000000000000081525060200191505060405180910390fd5b6008600087815260200190815260200160002060008681526020019081526020016000206001018054600181600116156101000203166002900480601f016020809104026020016040519081016040528092919081815260200182805460018160011615610100020316600290048015612a3b5780601f10612a1057610100808354040283529160200191612a3b565b820191906000526020600020905b815481529060010190602001808311612a1e57829003601f168201915b5050505050935060086000878152602001908152602001600020600086815260200190815260200160002060020154925060086000878152602001908152602001600020600086815260200190815260200160002060030154915060086000878152602001908152602001600020600086815260200190815260200160002060040160009054906101000a900460ff16905083838383935093509350935092959194509250565b6000612aed33611a67565b612b5f576040517f08c379a000000000000000000000000000000000000000000000000000000000815260040180806020018281038252601b8152602001807f43616c6c6572206973206e6f7420612053746f7265204f776e6572000000000081525060200191505060405180910390fd5b600260009054906101000a900460ff1615612be2576040517f08c379a00000000000000000000000000000000000000000000000000000000081526004018080602001828103825260108152602001807f5061757361626c653a207061757365640000000000000000000000000000000081525060200191505060405180910390fd5b6040518060a001604052806006548152602001868152602001858152602001848152602001600115158152506008600084815260200190815260200160002060006006548152602001908152602001600020600082015181600001556020820151816001019080519060200190612c5a929190613706565b50604082015181600201556060820151816003015560808201518160040160006101000a81548160ff0219169083151502179055509050507f6fb42fda7924e03e71725d1fdc5add8739165f9921d66d3156e390c752dd786360065483604051808381526020018281526020019250505060405180910390a1612ce9600160065461314890919063ffffffff16565b60068190555060019050949350505050565b6000612d0633611a67565b612d78576040517f08c379a000000000000000000000000000000000000000000000000000000000815260040180806020018281038252601b8152602001807f43616c6c6572206973206e6f7420612053746f7265204f776e6572000000000081525060200191505060405180910390fd5b600260009054906101000a900460ff1615612dfb576040517f08c379a00000000000000000000000000000000000000000000000000000000081526004018080602001828103825260108152602001807f5061757361626c653a207061757365640000000000000000000000000000000081525060200191505060405180910390fd5b60006007600084815260200190815260200160002060020160146101000a81548160ff02191690831515021790555060006007600084815260200190815260200160002060020160009054906101000a900473ffffffffffffffffffffffffffffffffffffffff1673ffffffffffffffffffffffffffffffffffffffff16600960006007600087815260200190815260200160002060020160009054906101000a900473ffffffffffffffffffffffffffffffffffffffff1673ffffffffffffffffffffffffffffffffffffffff1673ffffffffffffffffffffffffffffffffffffffff1681526020019081526020016000205460405180600001905060006040518083038185875af1925050503d8060008114612f35576040519150601f19603f3d011682016040523d82523d6000602084013e612f3a565b606091505b5050905080612fb1576040517f08c379a00000000000000000000000000000000000000000000000000000000081526004018080602001828103825260108152602001807f5472616e73666572206661696c65642e0000000000000000000000000000000081525060200191505060405180910390fd5b7f78ddf887da739003ffb119f607d8372679fb9b29e30ed36c8f400741cbdbe51d836040518082815260200191505060405180910390a16001915050919050565b612ffa61246f565b61306c576040517f08c379a00000000000000000000000000000000000000000000000000000000081526004018080602001828103825260208152602001807f4f776e61626c653a2063616c6c6572206973206e6f7420746865206f776e657281525060200191505060405180910390fd5b6130758161336a565b50565b60006130ba83836040518060400160405280601e81526020017f536166654d6174683a207375627472616374696f6e206f766572666c6f7700008152506134ae565b905092915050565b6000808314156130d55760009050613142565b60008284029050828482816130e657fe5b041461313d576040517f08c379a00000000000000000000000000000000000000000000000000000000081526004018080602001828103825260218152602001806138546021913960400191505060405180910390fd5b809150505b92915050565b6000808284019050838110156131c6576040517f08c379a000000000000000000000000000000000000000000000000000000000815260040180806020018281038252601b8152602001807f536166654d6174683a206164646974696f6e206f766572666c6f77000000000081525060200191505060405180910390fd5b8091505092915050565b600033905090565b60008073ffffffffffffffffffffffffffffffffffffffff168273ffffffffffffffffffffffffffffffffffffffff16141561325f576040517f08c379a00000000000000000000000000000000000000000000000000000000081526004018080602001828103825260228152602001806138756022913960400191505060405180910390fd5b8260000160008373ffffffffffffffffffffffffffffffffffffffff1673ffffffffffffffffffffffffffffffffffffffff16815260200190815260200160002060009054906101000a900460ff16905092915050565b6132ca81600161356e90919063ffffffff16565b8073ffffffffffffffffffffffffffffffffffffffff167fcd265ebaf09df2871cc7bd4133404a235ba12eff2041bb89d9c714a2621c7c7e60405160405180910390a250565b61332481600161362b90919063ffffffff16565b8073ffffffffffffffffffffffffffffffffffffffff167f6719d08c1888103bea251a4ed56406bd0c3e69723c8a1686e017e7bbe159b6f860405160405180910390a250565b600073ffffffffffffffffffffffffffffffffffffffff168173ffffffffffffffffffffffffffffffffffffffff1614156133f0576040517f08c379a00000000000000000000000000000000000000000000000000000000081526004018080602001828103825260268152602001806137dc6026913960400191505060405180910390fd5b8073ffffffffffffffffffffffffffffffffffffffff166000809054906101000a900473ffffffffffffffffffffffffffffffffffffffff1673ffffffffffffffffffffffffffffffffffffffff167f8be0079c531659141344cd1fd0a4f28419497f9722a3daafe3b4186f6b6457e060405160405180910390a3806000806101000a81548173ffffffffffffffffffffffffffffffffffffffff021916908373ffffffffffffffffffffffffffffffffffffffff16021790555050565b600083831115829061355b576040517f08c379a00000000000000000000000000000000000000000000000000000000081526004018080602001828103825283818151815260200191508051906020019080838360005b83811015613520578082015181840152602081019050613505565b50505050905090810190601f16801561354d5780820380516001836020036101000a031916815260200191505b509250505060405180910390fd5b5060008385039050809150509392505050565b61357882826131d8565b6135cd576040517f08c379a00000000000000000000000000000000000000000000000000000000081526004018080602001828103825260218152602001806138026021913960400191505060405180910390fd5b60008260000160008373ffffffffffffffffffffffffffffffffffffffff1673ffffffffffffffffffffffffffffffffffffffff16815260200190815260200160002060006101000a81548160ff0219169083151502179055505050565b61363582826131d8565b156136a8576040517f08c379a000000000000000000000000000000000000000000000000000000000815260040180806020018281038252601f8152602001807f526f6c65733a206163636f756e7420616c72656164792068617320726f6c650081525060200191505060405180910390fd5b60018260000160008373ffffffffffffffffffffffffffffffffffffffff1673ffffffffffffffffffffffffffffffffffffffff16815260200190815260200160002060006101000a81548160ff0219169083151502179055505050565b828054600181600116156101000203166002900490600052602060002090601f016020900481019282601f1061374757805160ff1916838001178555613775565b82800160010185558215613775579182015b82811115613774578251825591602001919060010190613759565b5b5090506137829190613786565b5090565b6137a891905b808211156137a457600081600090555060010161378c565b5090565b9056fe506175736572526f6c653a2063616c6c657220646f6573206e6f742068617665207468652050617573657220726f6c654f776e61626c653a206e6577206f776e657220697320746865207a65726f2061646472657373526f6c65733a206163636f756e7420646f6573206e6f74206861766520726f6c654572726f723a2073706563696669656420616d6f756e74206e6f7420617661696c61626c6520746f207769746864726177536166654d6174683a206d756c7469706c69636174696f6e206f766572666c6f77526f6c65733a206163636f756e7420697320746865207a65726f2061646472657373a265627a7a723158203d72714793e9b53ba2484c3bd0ad87be12c042c8f56b4b2affcd7574759f12fb64736f6c63430005100032526f6c65733a206163636f756e7420697320746865207a65726f2061646472657373",
  "source": "pragma solidity 0.5.16;\n\n/// @title Stores, a contract to manage stores and items\n/// @author Nazzareno Massari\n/// @notice Store owners can use this contract to manage store's inventory and funds\n/// @dev All function calls are currently implemented without side effecs through TDD approach\n/// @dev OpenZeppelin library is used for secure contract development\nimport \"@openzeppelin/contracts/math/SafeMath.sol\";\nimport \"./Marketplace.sol\";\n\ncontract Stores is Marketplace {\n\n  /// Using OpenZeppelin SafeMath library to revert a transaction when an operation overflows\n  using SafeMath for uint;\n\n  /// State variables\n  uint private storeCount;\n  uint private skuCount;\n  mapping (uint => Store) private store;\n  mapping (uint => mapping (uint => Item)) private item;\n  mapping (address => uint) private balances;\n\n  struct Store {\n    uint id;\n    string name;\n    address payable owner;\n    bool isOpen;\n  }\n\n  struct Item {\n    uint sku;\n    string name;\n    uint price;\n    uint quantity;\n    bool available;\n  }\n\n  /// Events\n  event StoreOpened(uint storeId);\n  event StoreBalanceWithdrawn(address storeOwner, uint withdrawAmount, uint newBalance);\n  event StoreClosed(uint storeId);\n  event ItemAdded(uint sku, uint storeId);\n  event ItemRemoved(uint sku, uint storeId);\n  event ItemPurchased(uint sku, uint storeId);\n\n  /// Modifiers\n  modifier paidEnough(uint _storeId, uint _sku, uint _quantity) {\n    require(_quantity > 0, \"Error: 0 quantity specified!\");\n    require(item[_storeId][_sku].quantity >= _quantity, \"Error: quantity not available\");\n    require(msg.value >= item[_storeId][_sku].price.mul(_quantity), \"Insufficient funds\");\n    _;\n  }\n\n  modifier checkValue(uint _storeId, uint _sku, uint _quantity) {\n    _;\n    uint price = item[_storeId][_sku].price;\n    uint amountToRefund = msg.value.sub(price.mul(_quantity));\n    require(amountToRefund > 0);\n    balances[store[_storeId].owner] = balances[store[_storeId].owner].sub(amountToRefund);\n    (bool success, ) = msg.sender.call.value(amountToRefund)(\"\");\n    require(success, \"Transfer Failed\");\n  }\n\n  /// @notice Getter function for store balance\n  /// @dev Access restricted to only Store Owners\n  /// @return The store balance of the sender Store Owner\n  function getBalance()\n    public\n    view\n    onlyStoreOwner()\n    whenNotPaused()\n    returns (uint)\n  {\n    return balances[msg.sender];\n  }\n\n  /// @notice Check if the store is open\n  /// @dev Used mainly for tests\n  /// @param storeId The store Id\n  /// @return True if the store is open\n  function isStoreOpen(uint storeId)\n    public\n    view\n    whenNotPaused()\n    returns(bool)\n  {\n    return store[storeId].isOpen;\n  }\n\n  /// @notice Fectch an Item\n  /// @dev Used mainly for tests\n  /// @param storeId The store Id\n  /// @param sku The sku of the item\n  /// @return The name, price, quantity, availability of the item\n  function fetchItem(uint storeId, uint sku)\n   public\n   view\n   whenNotPaused()\n   returns(string memory name, uint price, uint quantity, bool available)\n   {\n     name = item[storeId][sku].name;\n     price = item[storeId][sku].price;\n     quantity = item[storeId][sku].quantity;\n     available = item[storeId][sku].available;\n     return (name, price, quantity, available);\n   }\n\n  /// @notice Open a new store\n  /// @param _name The name of the new store\n  /// @dev Access restricted only to Store Owners\n  /// @return True if store is successfully opened\n  function openStore(string memory _name)\n    public\n    onlyStoreOwner()\n    whenNotPaused()\n    returns(bool)\n  {\n    store[storeCount] = Store({id: storeCount, name: _name, owner: msg.sender, isOpen:true});\n    balances[msg.sender] = 0;\n    emit StoreOpened(storeCount);\n    storeCount = storeCount.add(1);\n    return true;\n  }\n\n  /// @notice Close a store\n  /// @dev Access restricted only to Store Owners\n  /// @param storeId The store Id\n  /// @return True if the store is successfully closed\n  function closeStore(uint storeId)\n    public\n    onlyStoreOwner()\n    whenNotPaused()\n    returns(bool)\n  {\n\tstore[storeId].isOpen = false;\n\t(bool success, ) = store[storeId].owner.call.value(balances[store[storeId].owner])(\"\");\n  require(success, \"Transfer failed.\");\n\temit StoreClosed(storeId);\n\treturn true;\n  }\n\n  /// @notice Add a new item\n  /// @dev Access restricted only to Store Owners\n  /// @param _name Name of the new item\n  /// @param _price Price of the new item\n  /// @param _quantity Quantity of the new item\n  /// @param _storeId The store Id to reference the store\n  /// @return True if the item is successfully added\n  function addItem(string memory _name, uint _price, uint _quantity, uint _storeId)\n    public\n    onlyStoreOwner()\n    whenNotPaused()\n    returns(bool)\n  {\n\titem[_storeId][skuCount] = Item({sku:skuCount, name:_name, price: _price, quantity: _quantity, available:true});\n  emit ItemAdded(skuCount, _storeId);\n\tskuCount = skuCount.add(1);\n\treturn true;\n  }\n\n  /// @notice Remove an item\n  /// @dev Access restricted only to Store Owners\n  /// @param storeId The store Id\n  /// @param sku The sku of the item\n  /// @return True if the item is successfully removed\n  function removeItem(uint storeId, uint sku)\n    public\n    onlyStoreOwner()\n    whenNotPaused()\n    returns(bool)\n  {\n  item[storeId][sku].price = 0;\n  item[storeId][sku].quantity = 0;\n  item[storeId][sku].available = false;\n\temit ItemRemoved(storeId, sku);\n\treturn true;\n  }\n\n  /// @notice Buy an item\n  /// @param storeId The store Id\n  /// @param sku The item sku\n  /// @param quantity The quantity for the selected item\n  /// @return True if the item is successfully bought\n  function buyItem(uint storeId, uint sku, uint quantity)\n    public\n    payable\n    paidEnough(storeId, sku, quantity)\n    checkValue(storeId, sku, quantity)\n    whenNotPaused()\n    returns(bool)\n {\n    require(item[storeId][sku].available);\n    balances[store[storeId].owner] = balances[store[storeId].owner].add(msg.value);\n    item[storeId][sku].quantity = item[storeId][sku].quantity.sub(quantity);\n    emit ItemPurchased(storeId, sku);\n    return true;\n }\n\n  /// @notice Withdraw an amount from the store balance\n  /// @dev Access restricted to Store Owners\n  /// @param withdrawAmount Amount to withdraw\n  /// @return The updated store balance\n  function withdrawStoreBalance(uint withdrawAmount)\n    public\n    onlyStoreOwner()\n    whenNotPaused()\n    returns (uint)\n {\n    require(withdrawAmount != 0, \"Error: 0 amount specified!\");\n    require(balances[msg.sender] >= withdrawAmount, \"Error: specified amount not available to withdraw\");\n    balances[msg.sender] = balances[msg.sender].sub(withdrawAmount);\n    (bool success, ) = msg.sender.call.value(withdrawAmount)(\"\");\n    require(success, \"Transfer failed.\");\n    emit StoreBalanceWithdrawn(msg.sender, withdrawAmount, balances[msg.sender]);\n    return balances[msg.sender];\n  }\n\n}\n",
  "sourcePath": "/home/naszam/Documents/online-marketplace/contracts/Stores.sol",
  "compiler": {
    "name": "solc",
    "version": "0.5.16+commit.9c3226ce.Emscripten.clang"
  },
  "schemaVersion": "3.0.20",
  "updatedAt": "2020-01-21T02:15:37.415Z",
  "networkType": "ethereum",
  "devdoc": {
    "methods": {
      "addAdmin(address)": {
        "details": "Access restricted only for Admins",
        "params": {
          "account": "Address of the new Admin"
        },
        "return": "True if the account address is added as Admin"
      },
      "addItem(string,uint256,uint256,uint256)": {
        "details": "Access restricted only to Store Owners",
        "params": {
          "_name": "Name of the new item",
          "_price": "Price of the new item",
          "_quantity": "Quantity of the new item",
          "_storeId": "The store Id to reference the store"
        },
        "return": "True if the item is successfully added"
      },
      "addStoreOwner(address)": {
        "params": {
          "storeOwner": "address of the new Store Owner"
        },
        "return": "True if the storeOwner address is added as Store Owner"
      },
      "buyItem(uint256,uint256,uint256)": {
        "params": {
          "quantity": "The quantity for the selected item",
          "sku": "The item sku",
          "storeId": "The store Id"
        },
        "return": "True if the item is successfully bought"
      },
      "closeStore(uint256)": {
        "details": "Access restricted only to Store Owners",
        "params": {
          "storeId": "The store Id"
        },
        "return": "True if the store is successfully closed"
      },
      "fetchItem(uint256,uint256)": {
        "details": "Used mainly for tests",
        "params": {
          "sku": "The sku of the item",
          "storeId": "The store Id"
        },
        "return": "The name, price, quantity, availability of the item"
      },
      "getBalance()": {
        "details": "Access restricted to only Store Owners",
        "return": "The store balance of the sender Store Owner"
      },
      "isAdmin(address)": {
        "details": "Used in onlyAdmin() modifier",
        "params": {
          "account": "Address to check"
        },
        "return": "True if the account is an Admin"
      },
      "isOwner()": {
        "details": "Returns true if the caller is the current owner."
      },
      "isStoreOpen(uint256)": {
        "details": "Used mainly for tests",
        "params": {
          "storeId": "The store Id"
        },
        "return": "True if the store is open"
      },
      "isStoreOwner(address)": {
        "details": "Used in onlyStoreOwner() modifier",
        "params": {
          "account": "Address to check"
        },
        "return": "True is the account address is a Store Owner"
      },
      "openStore(string)": {
        "details": "Access restricted only to Store Owners",
        "params": {
          "_name": "The name of the new store"
        },
        "return": "True if store is successfully opened"
      },
      "owner()": {
        "details": "Returns the address of the current owner."
      },
      "pause()": {
        "details": "Called by a pauser to pause, triggers stopped state."
      },
      "paused()": {
        "details": "Returns true if the contract is paused, and false otherwise."
      },
      "removeAdmin(address)": {
        "details": "Access restricted only for Admins",
        "params": {
          "account": "Admin address to remove"
        },
        "return": "True if the account address if removed as Admin"
      },
      "removeItem(uint256,uint256)": {
        "details": "Access restricted only to Store Owners",
        "params": {
          "sku": "The sku of the item",
          "storeId": "The store Id"
        },
        "return": "True if the item is successfully removed"
      },
      "removeStoreOwner(address)": {
        "params": {
          "storeOwner": "Store owner address to remove"
        },
        "return": "True if the storeOwner address is removed as Store Owner"
      },
      "renounceOwnership()": {
        "details": "Leaves the contract without owner. It will not be possible to call `onlyOwner` functions anymore. Can only be called by the current owner.     * NOTE: Renouncing ownership will leave the contract without an owner, thereby removing any functionality that is only available to the owner."
      },
      "transferOwnership(address)": {
        "details": "Transfers ownership of the contract to a new account (`newOwner`). Can only be called by the current owner."
      },
      "unpause()": {
        "details": "Called by a pauser to unpause, returns to normal state."
      },
      "withdrawStoreBalance(uint256)": {
        "details": "Access restricted to Store Owners",
        "params": {
          "withdrawAmount": "Amount to withdraw"
        },
        "return": "The updated store balance"
      }
    }
  },
  "userdoc": {
    "methods": {
      "addAdmin(address)": {
        "notice": "Add a new Admin"
      },
      "addItem(string,uint256,uint256,uint256)": {
        "notice": "Add a new item"
      },
      "addStoreOwner(address)": {
        "notice": "Add a new Store Owner"
      },
      "buyItem(uint256,uint256,uint256)": {
        "notice": "Buy an item"
      },
      "closeStore(uint256)": {
        "notice": "Close a store"
      },
      "fetchItem(uint256,uint256)": {
        "notice": "Fectch an Item"
      },
      "getBalance()": {
        "notice": "Getter function for store balance"
      },
      "isAdmin(address)": {
        "notice": "Check if the address is an Admin"
      },
      "isStoreOpen(uint256)": {
        "notice": "Check if the store is open"
      },
      "isStoreOwner(address)": {
        "notice": "Check if the address is a Store Owner"
      },
      "openStore(string)": {
        "notice": "Open a new store"
      },
      "removeAdmin(address)": {
        "notice": "Remove an Admin"
      },
      "removeItem(uint256,uint256)": {
        "notice": "Remove an item"
      },
      "removeStoreOwner(address)": {
        "notice": "Remove a Store Owner"
      },
      "withdrawStoreBalance(uint256)": {
        "notice": "Withdraw an amount from the store balance"
      }
    }
  }
}